S01200007370695F6D61737465722E73726563DB
S11300000C942A000C9434000C9434000C943400A6
S11300100C9434000C9434000C9434000C9434008C
S11300200C9434000C9434000C9434000C9434007C
S11300300C9434000C9434000C9434000C9434006C
S11300400C9434000C9434000C9434000C9434005C
S11300500C94340011241FBECFE5D8E0DEBFCDBF21
S11300600E9466000C946E000C9400009C0183E0D6
S113007083BF83E807C082BF98B7916098BF08B672
S113008000FEFDCF21503109B0F713BE08959798B3
S113009084EF91E00E943600979A84EF91E00E94E9
S11300A03600089580EB87BB81E58DB9C49A089525
S11300B0C4988FB90E944700779BFECF8FB18F3BC6
S11300C011F4969A01C09698C49A08958FEF81BB53
S11300D00E9452008DE90E945800FCCFF894FFCF93
S9030000FC
