:100000000C942A000C94EB000C9447000C944700CD
:100010000C9447000C9447000C9447000C94470044
:100020000C9447000C9447000C9447000C94470034
:100030000C9447000C9447000C9447000C94470024
:100040000C9447000C9447000C9447000C94470014
:100050000C94470011241FBECFE5D8E0DEBFCDBF12
:1000600010E0A0E6B0E0E2EDF6E002C005900D92EF
:10007000AE36B107D9F720E0AEE6B0E001C01D9280
:10008000A137B207E1F70E9412010C9467030C94A8
:1000900000008BB780648BBF85B7816085BF0895F2
:1000A0000E94520181E00E942F0140E650E060E092
:1000B00081E00E94770108958FB5826A8FBD8EB569
:1000C0008A618EBD8FE19EE497BD86BD08958BEF5A
:1000D00081BB84E082BB08950E9467000E945000AB
:1000E0000E9449000E945C0078940895909A8AE1E9
:1000F0008A95F1F700C0909808954A9714F0DF9818
:100100000895DF9A0895CF92DF92EF92FF92CF93F6
:10011000DF93EC0160916F0070917000072E000C6E
:10012000880B990B0E94390229E23CE349E652E42C
:100130000E948F010E9401026B017C014AE0BE0116
:10014000C6010E94320381E00E942F01AE0160E0EF
:1001500082E00E947701C6010E947D00DF91CF916D
:10016000FF90EF90DF90CF9008958FB582608FBDA4
:1001700060916F0070917000072E000C880B990B36
:100180000E94390229E23CE349E652E40E948F01D1
:1001900020E030E048E452E40E94C5020E940102DF
:1001A000643F21E0720714F464EF71E0653C89E07C
:1001B000780714F064EC79E07BBD6ABD9FEF20E71F
:1001C00082E0915020408040E1F700C000008FB5F0
:1001D0008D7F8FBD08951F920F920FB60F9211243D
:1001E0008F939F9380916E00811106C01DBC1CBC33
:1001F00081E080936E000FC080916E00813049F4E1
:100200008CB59DB59093700080936F0010926E0036
:1002100002C010926E009F918F910F900FBE0F90B1
:100220001F901895CF93DF93CDB7DEB760970FB6C9
:10023000F894DEBF0FBECDBF0E946C008FEF8ABB6B
:100240000E9476008FE19EE40197F1F700C0000064
:100250000E94B500CE0101960E948300F1CF88BBB9
:1002600084E085BB8FEC97E00197F1F700C00000B8
:1002700015BA8FE097E20197F1F700C000000895EA
:1002800088BB84E185BB8FEC97E00197F1F700C054
:10029000000080E185BB8FE097E20197F1F700C095
:1002A000000008958FE39CE90197F1F700C000007A
:1002B0008FEF84BB87BB88E30E942F0181E00E94FF
:1002C0002F018CE00E942F0180E80E942F010895E9
:1002D000CF93DF93EC018881882331F021960E942F
:1002E000400189918111FBCFDF91CF910895CF9388
:1002F000DF93EA01813031F4862F8F7080680E948D
:100300002F0107C0823029F4862F8F70806C0E94E5
:100310002F01CE010E946801DF91CF9108950E94C4
:10032000A3010C948B020E94840258F00E947D026B
:1003300040F029F45F3F29F00C94740251110C94A1
:10034000BF020C947A020E949C0268F39923B1F3D5
:10035000552391F3951B550BBB27AA2762177307EB
:10036000840738F09F5F5F4F220F331F441FAA1F7F
:10037000A9F335D00E2E3AF0E0E832D0915050403B
:10038000E695001CCAF72BD0FE2F29D0660F771FE9
:10039000881FBB1F261737074807AB07B0E809F0CF
:1003A000BB0B802DBF01FF2793585F4F3AF09E3F54
:1003B000510578F00C9474020C94BF025F3FE4F393
:1003C000983ED4F3869577956795B795F7959F5F97
:1003D000C9F7880F911D9695879597F90895E1E0E3
:1003E000660F771F881FBB1F621773078407BA0742
:1003F00020F0621B730B840BBA0BEE1F88F7E0959D
:1004000008950E9408026894B1110C94BF020895E7
:100410000E94A40288F09F5798F0B92F9927B751EE
:10042000B0F0E1F0660F771F881F991F1AF0BA9598
:10043000C9F714C0B13091F00E94BE02B1E0089536
:100440000C94BE02672F782F8827B85F39F0B93F28
:10045000CCF3869577956795B395D9F73EF490954B
:100460008095709561957F4F8F4F9F4F0895E894C9
:1004700009C097FB3EF490958095709561957F4FEC
:100480008F4F9F4F9923A9F0F92F96E9BB2793959A
:10049000F695879577956795B795F111F8CFFAF4AA
:1004A000BB0F11F460FF1BC06F5F7F4F8F4F9F4FDB
:1004B00016C0882311F096E911C0772321F09EE839
:1004C000872F762F05C0662371F096E8862F70E09F
:1004D00060E02AF09A95660F771F881FDAF7880F79
:1004E0009695879597F9089597F99F6780E870E04A
:1004F00060E008959FEF80EC089500240A9416169A
:10050000170618060906089500240A941216130601
:10051000140605060895092E0394000C11F488238F
:1005200052F0BB0F40F4BF2B11F460FF04C06F5FAB
:100530007F4F8F4F9F4F089557FD9058440F551F81
:1005400059F05F3F71F04795880F97FB991F61F055
:100550009F3F79F087950895121613061406551FCC
:10056000F2CF4695F1DF08C0161617061806991F38
:10057000F1CF86957105610508940895E894BB272D
:1005800066277727CB0197F908950E94D8020C942B
:100590008B020E947D0238F00E94840220F0952395
:1005A00011F00C9474020C947A0211240C94BF0282
:1005B0000E949C0270F3959FC1F3950F50E0551F68
:1005C000629FF001729FBB27F00DB11D639FAA27A8
:1005D000F00DB11DAA1F649F6627B00DA11D661FF7
:1005E000829F2227B00DA11D621F739FB00DA11D18
:1005F000621F839FA00D611D221F749F3327A00DD2
:10060000611D231F849F600D211D822F762F6A2F6D
:1006100011249F5750409AF0F1F088234AF0EE0FD2
:10062000FF1FBB1F661F771F881F91505040A9F7FF
:100630009E3F510580F00C9474020C94BF025F3F02
:10064000E4F3983ED4F3869577956795B795F7953B
:10065000E7959F5FC1F7FE2B880F911D96958795B3
:1006600097F90895BB274A3031F4992322F4BDE26B
:10067000909581959F4F0C943E03BB27FB01552716
:10068000AA27880F991FAA1FA41710F0A41B8395EF
:100690005051B9F7A05DAA3308F0A95DA193009766
:1006A00079F7B111B1931192CB010C945703DC018E
:1006B000FC01672F71917723E1F7329704C07C9199
:1006C0006D9370836291AE17BF07C8F30895F894D5
:0206D000FFCF5A
:0E06D20057697468206F6E65206C6F6F6B0047
:00000001FF
