S01100007370695F736C6176652E737265634D
S11300000C942A000C9434000C9434000C943400A6
S11300100C9434000C9434000C9434000C9434008C
S11300200C9434000C9434000C9434000C9434007C
S11300300C9434000C9434000C9434000C9434006C
S11300400C9434000C9434000C9434000C9434005C
S11300500C94340011241FBECFE5D8E0DEBFCDBF21
S11300600E943F000C9449000C94000080E487BB7C
S113007081E48DB90895779BFECF8FB108950E94D6
S113008036000E943B008D3911F4979AFACF979865
S1090090F8CFF894FFCF45
S9030000FC
