:100000000C942A000C9434000C9434000C943400AA
:100010000C9434000C9434000C9434000C94340090
:100020000C9434000C9434000C9434000C94340080
:100030000C9434000C9434000C9434000C94340070
:100040000C9434000C9434000C9434000C94340060
:100050000C94340011241FBECFE5D8E0DEBFCDBF25
:100060000E9441000C944D000C94000080E487BB7A
:1000700081E48DB908958FEB8FB9779BFECF8FB157
:1000800008958FEF81BB0E9436000E943B008D399E
:0E00900011F4979AFACF9798F8CFF894FFCF13
:00000001FF
